{
    "contractName": "AutonomousInspection",
    "abi": [
        {
            "constant": true,
            "inputs": [],
            "name": "projectIndex",
            "outputs": [
                {
                    "internalType": "int256",
                    "name": "",
                    "type": "int256"
                }
            ],
            "payable": false,
            "stateMutability": "view",
            "type": "function"
        },
        {
            "constant": true,
            "inputs": [
                {
                    "internalType": "int256",
                    "name": "",
                    "type": "int256"
                }
            ],
            "name": "projects",
            "outputs": [
                {
                    "internalType": "string",
                    "name": "name",
                    "type": "string"
                },
                {
                    "internalType": "string",
                    "name": "wbs",
                    "type": "string"
                }
            ],
            "payable": false,
            "stateMutability": "view",
            "type": "function"
        },
        {
            "constant": false,
            "inputs": [
                {
                    "internalType": "int256",
                    "name": "projectId",
                    "type": "int256"
                },
                {
                    "internalType": "int256",
                    "name": "sheetId",
                    "type": "int256"
                },
                {
                    "internalType": "int256[]",
                    "name": "_itemsState",
                    "type": "int256[]"
                },
                {
                    "internalType": "int256",
                    "name": "_timing",
                    "type": "int256"
                },
                {
                    "internalType": "string",
                    "name": "_contractor",
                    "type": "string"
                }
            ],
            "name": "createSheet",
            "outputs": [],
            "payable": false,
            "stateMutability": "nonpayable",
            "type": "function"
        },
        {
            "constant": false,
            "inputs": [
                {
                    "internalType": "int256",
                    "name": "projectId",
                    "type": "int256"
                },
                {
                    "internalType": "int256",
                    "name": "sheetId",
                    "type": "int256"
                },
                {
                    "internalType": "int256[]",
                    "name": "_state",
                    "type": "int256[]"
                },
                {
                    "internalType": "string",
                    "name": "_date",
                    "type": "string"
                },
                {
                    "internalType": "string",
                    "name": "_note",
                    "type": "string"
                },
                {
                    "internalType": "string",
                    "name": "_photo",
                    "type": "string"
                }
            ],
            "name": "fillSheet",
            "outputs": [],
            "payable": false,
            "stateMutability": "nonpayable",
            "type": "function"
        },
        {
            "constant": true,
            "inputs": [
                {
                    "internalType": "int256",
                    "name": "projectId",
                    "type": "int256"
                },
                {
                    "internalType": "int256",
                    "name": "sheetId",
                    "type": "int256"
                }
            ],
            "name": "inspectionItems",
            "outputs": [
                {
                    "internalType": "string",
                    "name": "_inspectionItems",
                    "type": "string"
                }
            ],
            "payable": false,
            "stateMutability": "view",
            "type": "function"
        },
        {
            "constant": true,
            "inputs": [
                {
                    "internalType": "int256",
                    "name": "projectId",
                    "type": "int256"
                },
                {
                    "internalType": "int256",
                    "name": "sheetId",
                    "type": "int256"
                }
            ],
            "name": "sheetContent",
            "outputs": [
                {
                    "internalType": "int256[]",
                    "name": "_itemsState",
                    "type": "int256[]"
                },
                {
                    "internalType": "int256",
                    "name": "_executed",
                    "type": "int256"
                },
                {
                    "internalType": "string",
                    "name": "_executeTime",
                    "type": "string"
                },
                {
                    "internalType": "address",
                    "name": "_executor",
                    "type": "address"
                },
                {
                    "internalType": "int256",
                    "name": "_timing",
                    "type": "int256"
                },
                {
                    "internalType": "string",
                    "name": "_note",
                    "type": "string"
                },
                {
                    "internalType": "string",
                    "name": "_photo",
                    "type": "string"
                },
                {
                    "internalType": "string",
                    "name": "_contractor",
                    "type": "string"
                }
            ],
            "payable": false,
            "stateMutability": "view",
            "type": "function"
        },
        {
            "constant": false,
            "inputs": [
                {
                    "internalType": "int256",
                    "name": "projectId",
                    "type": "int256"
                },
                {
                    "internalType": "int256",
                    "name": "itemId",
                    "type": "int256"
                },
                {
                    "internalType": "string",
                    "name": "ipfshash",
                    "type": "string"
                }
            ],
            "name": "uploadItem",
            "outputs": [],
            "payable": false,
            "stateMutability": "nonpayable",
            "type": "function"
        },
        {
            "constant": false,
            "inputs": [
                {
                    "internalType": "int256",
                    "name": "projectId",
                    "type": "int256"
                },
                {
                    "internalType": "string",
                    "name": "ipfshash",
                    "type": "string"
                }
            ],
            "name": "wbs",
            "outputs": [],
            "payable": false,
            "stateMutability": "nonpayable",
            "type": "function"
        },
        {
            "constant": false,
            "inputs": [
                {
                    "internalType": "string",
                    "name": "_name",
                    "type": "string"
                },
                {
                    "internalType": "string",
                    "name": "ipfshash",
                    "type": "string"
                }
            ],
            "name": "createProject",
            "outputs": [],
            "payable": false,
            "stateMutability": "nonpayable",
            "type": "function"
        }
    ],
    "bytecode": "0x6080604052600060015534801561001557600080fd5b506118eb806100256000396000f3fe608060405234801561001057600080fd5b50600436106100935760003560e01c8063743a1eb311610066578063743a1eb314610555578063853351ea146106c2578063c23812cc14610953578063cc61a10e14610a66578063e2f5f6ac14610b2b57610093565b806361c304241461009857806363184726146101675780636bd06204146101855780636fa4bc17146102d7575b600080fd5b610165600480360360608110156100ae57600080fd5b810190808035906020019092919080359060200190929190803590602001906401000000008111156100df57600080fd5b8201836020820111156100f157600080fd5b8035906020019184600183028401116401000000008311171561011357600080fd5b91908080601f016020809104026020016040519081016040528093929190818152602001838380828437600081840152601f19601f820116905080830192505050505050509192919290505050610bdc565b005b61016f610c1c565b6040518082815260200191505060405180910390f35b6102d56004803603604081101561019b57600080fd5b81019080803590602001906401000000008111156101b857600080fd5b8201836020820111156101ca57600080fd5b803590602001918460018302840111640100000000831117156101ec57600080fd5b91908080601f016020809104026020016040519081016040528093929190818152602001838380828437600081840152601f19601f8201169050808301925050505050505091929192908035906020019064010000000081111561024f57600080fd5b82018360208201111561026157600080fd5b8035906020019184600183028401116401000000008311171561028357600080fd5b91908080601f016020809104026020016040519081016040528093929190818152602001838380828437600081840152601f19601f820116905080830192505050505050509192919290505050610c22565b005b61030d600480360360408110156102ed57600080fd5b810190808035906020019092919080359060200190929190505050610c90565b6040518080602001898152602001806020018873ffffffffffffffffffffffffffffffffffffffff1673ffffffffffffffffffffffffffffffffffffffff16815260200187815260200180602001806020018060200186810386528e818151815260200191508051906020019060200280838360005b8381101561039e578082015181840152602081019050610383565b5050505090500186810385528c818151815260200191508051906020019080838360005b838110156103dd5780820151818401526020810190506103c2565b50505050905090810190601f16801561040a5780820380516001836020036101000a031916815260200191505b50868103845289818151815260200191508051906020019080838360005b83811015610443578082015181840152602081019050610428565b50505050905090810190601f1680156104705780820380516001836020036101000a031916815260200191505b50868103835288818151815260200191508051906020019080838360005b838110156104a957808201518184015260208101905061048e565b50505050905090810190601f1680156104d65780820380516001836020036101000a031916815260200191505b50868103825287818151815260200191508051906020019080838360005b8381101561050f5780820151818401526020810190506104f4565b50505050905090810190601f16801561053c5780820380516001836020036101000a031916815260200191505b509d505050505050505050505050505060405180910390f35b6106c0600480360360a081101561056b57600080fd5b8101908080359060200190929190803590602001909291908035906020019064010000000081111561059c57600080fd5b8201836020820111156105ae57600080fd5b803590602001918460208302840111640100000000831117156105d057600080fd5b919080806020026020016040519081016040528093929190818152602001838360200280828437600081840152601f19601f820116905080830192505050505050509192919290803590602001909291908035906020019064010000000081111561063a57600080fd5b82018360208201111561064c57600080fd5b8035906020019184600183028401116401000000008311171561066e57600080fd5b91908080601f016020809104026020016040519081016040528093929190818152602001838380828437600081840152601f19601f8201169050808301925050505050505091929192905050506110d9565b005b610951600480360360c08110156106d857600080fd5b8101908080359060200190929190803590602001909291908035906020019064010000000081111561070957600080fd5b82018360208201111561071b57600080fd5b8035906020019184602083028401116401000000008311171561073d57600080fd5b919080806020026020016040519081016040528093929190818152602001838360200280828437600081840152601f19601f8201169050808301925050505050505091929192908035906020019064010000000081111561079d57600080fd5b8201836020820111156107af57600080fd5b803590602001918460018302840111640100000000831117156107d157600080fd5b91908080601f016020809104026020016040519081016040528093929190818152602001838380828437600081840152601f19601f8201169050808301925050505050505091929192908035906020019064010000000081111561083457600080fd5b82018360208201111561084657600080fd5b8035906020019184600183028401116401000000008311171561086857600080fd5b91908080601f016020809104026020016040519081016040528093929190818152602001838380828437600081840152601f19601f820116905080830192505050505050509192919290803590602001906401000000008111156108cb57600080fd5b8201836020820111156108dd57600080fd5b803590602001918460018302840111640100000000831117156108ff57600080fd5b91908080601f016020809104026020016040519081016040528093929190818152602001838380828437600081840152601f19601f8201169050808301925050505050505091929192905050506112e6565b005b61097f6004803603602081101561096957600080fd5b8101908080359060200190929190505050611487565b604051808060200180602001838103835285818151815260200191508051906020019080838360005b838110156109c35780820151818401526020810190506109a8565b50505050905090810190601f1680156109f05780820380516001836020036101000a031916815260200191505b50838103825284818151815260200191508051906020019080838360005b83811015610a29578082015181840152602081019050610a0e565b50505050905090810190601f168015610a565780820380516001836020036101000a031916815260200191505b5094505050505060405180910390f35b610b2960048036036040811015610a7c57600080fd5b810190808035906020019092919080359060200190640100000000811115610aa357600080fd5b820183602082011115610ab557600080fd5b80359060200191846001830284011164010000000083111715610ad757600080fd5b91908080601f016020809104026020016040519081016040528093929190818152602001838380828437600081840152601f19601f8201169050808301925050505050505091929192905050506115db565b005b610b6160048036036040811015610b4157600080fd5b810190808035906020019092919080359060200190929190505050611609565b6040518080602001828103825283818151815260200191508051906020019080838360005b83811015610ba1578082015181840152602081019050610b86565b50505050905090810190601f168015610bce5780820380516001836020036101000a031916815260200191505b509250505060405180910390f35b8060008085815260200190815260200160002060010160008481526020019081526020016000209080519060200190610c169291906116d2565b50505050565b60015481565b8160008060015481526020019081526020016000206000019080519060200190610c4d9291906116d2565b508060008060015481526020019081526020016000206003019080519060200190610c799291906116d2565b506001600081548092919060010191905055505050565b60606000606060008060608060606000808b815260200190815260200160002060020160008a8152602001908152602001600020600001805480602002602001604051908101604052809291908181526020018280548015610d1157602002820191906000526020600020905b815481526020019060010190808311610cfd575b505050505097506000808b815260200190815260200160002060020160008a81526020019081526020016000206001015496506000808b815260200190815260200160002060020160008a81526020019081526020016000206002018054600181600116156101000203166002900480601f016020809104026020016040519081016040528092919081815260200182805460018160011615610100020316600290048015610e015780601f10610dd657610100808354040283529160200191610e01565b820191906000526020600020905b815481529060010190602001808311610de457829003601f168201915b505050505095506000808b815260200190815260200160002060020160008a815260200190815260200160002060030160009054906101000a900473ffffffffffffffffffffffffffffffffffffffff1694506000808b815260200190815260200160002060020160008a81526020019081526020016000206004015493506000808b815260200190815260200160002060020160008a81526020019081526020016000206005018054600181600116156101000203166002900480601f016020809104026020016040519081016040528092919081815260200182805460018160011615610100020316600290048015610f3d5780601f10610f1257610100808354040283529160200191610f3d565b820191906000526020600020905b815481529060010190602001808311610f2057829003601f168201915b505050505092506000808b815260200190815260200160002060020160008a81526020019081526020016000206006018054600181600116156101000203166002900480601f0160208091040260200160405190810160405280929190818152602001828054600181600116156101000203166002900480156110015780601f10610fd657610100808354040283529160200191611001565b820191906000526020600020905b815481529060010190602001808311610fe457829003601f168201915b505050505091506000808b815260200190815260200160002060020160008a81526020019081526020016000206007018054600181600116156101000203166002900480601f0160208091040260200160405190810160405280929190818152602001828054600181600116156101000203166002900480156110c55780601f1061109a576101008083540402835291602001916110c5565b820191906000526020600020905b8154815290600101906020018083116110a857829003601f168201915b505050505090509295985092959890939650565b604051806101000160405280848152602001600081526020016040518060400160405280600181526020017f20000000000000000000000000000000000000000000000000000000000000008152508152602001600173ffffffffffffffffffffffffffffffffffffffff1681526020018381526020016040518060400160405280600181526020017f200000000000000000000000000000000000000000000000000000000000000081525081526020016040518060400160405280600181526020017f20000000000000000000000000000000000000000000000000000000000000008152508152602001828152506000808781526020019081526020016000206002016000868152602001908152602001600020600082015181600001908051906020019061120c929190611752565b5060208201518160010155604082015181600201908051906020019061123392919061179f565b5060608201518160030160006101000a81548173ffffffffffffffffffffffffffffffffffffffff021916908373ffffffffffffffffffffffffffffffffffffffff1602179055506080820151816004015560a08201518160050190805190602001906112a192919061179f565b5060c08201518160060190805190602001906112be92919061179f565b5060e08201518160070190805190602001906112db92919061179f565b509050505050505050565b836000808881526020019081526020016000206002016000878152602001908152602001600020600001908051906020019061132392919061181f565b50600080878152602001908152602001600020600201600086815260200190815260200160002060010160008154809291906001019190505550826000808881526020019081526020016000206002016000878152602001908152602001600020600201908051906020019061139a9291906116d2565b5033600080888152602001908152602001600020600201600087815260200190815260200160002060030160006101000a81548173ffffffffffffffffffffffffffffffffffffffff021916908373ffffffffffffffffffffffffffffffffffffffff16021790555081600080888152602001908152602001600020600201600087815260200190815260200160002060050190805190602001906114409291906116d2565b50806000808881526020019081526020016000206002016000878152602001908152602001600020600601908051906020019061147e9291906116d2565b50505050505050565b6000602052806000526040600020600091509050806000018054600181600116156101000203166002900480601f0160208091040260200160405190810160405280929190818152602001828054600181600116156101000203166002900480156115335780601f1061150857610100808354040283529160200191611533565b820191906000526020600020905b81548152906001019060200180831161151657829003601f168201915b505050505090806003018054600181600116156101000203166002900480601f0160208091040260200160405190810160405280929190818152602001828054600181600116156101000203166002900480156115d15780601f106115a6576101008083540402835291602001916115d1565b820191906000526020600020905b8154815290600101906020018083116115b457829003601f168201915b5050505050905082565b8060008084815260200190815260200160002060030190805190602001906116049291906116d2565b505050565b606060008084815260200190815260200160002060010160008381526020019081526020016000208054600181600116156101000203166002900480601f0160208091040260200160405190810160405280929190818152602001828054600181600116156101000203166002900480156116c55780601f1061169a576101008083540402835291602001916116c5565b820191906000526020600020905b8154815290600101906020018083116116a857829003601f168201915b5050505050905092915050565b828054600181600116156101000203166002900490600052602060002090601f016020900481019282601f1061171357805160ff1916838001178555611741565b82800160010185558215611741579182015b82811115611740578251825591602001919060010190611725565b5b50905061174e919061186c565b5090565b82805482825590600052602060002090810192821561178e579160200282015b8281111561178d578251825591602001919060010190611772565b5b50905061179b9190611891565b5090565b828054600181600116156101000203166002900490600052602060002090601f016020900481019282601f106117e057805160ff191683800117855561180e565b8280016001018555821561180e579182015b8281111561180d5782518255916020019190600101906117f2565b5b50905061181b919061186c565b5090565b82805482825590600052602060002090810192821561185b579160200282015b8281111561185a57825182559160200191906001019061183f565b5b5090506118689190611891565b5090565b61188e91905b8082111561188a576000816000905550600101611872565b5090565b90565b6118b391905b808211156118af576000816000905550600101611897565b5090565b9056fea265627a7a72315820095d5ec2821d7539582fc1b8883df198dc4026075fcadc95636e04260978ccd364736f6c634300050c0032",
    "source": "pragma solidity ^0.5.0;\r\n\r\ncontract AutonomousInspection {\r\n    \r\n    struct project {\r\n        string name;\r\n        mapping (int => string) inspectionItems;\r\n        mapping (int => sheet) sheets;\r\n        string wbs;\r\n    }\r\n\r\n    struct sheet {\r\n        int[] itemsState; // 0: blank, 1: qualified, 2: defective, 3: corrected, 4: no this\r\n        int executed; // times of inspection\r\n        string executeTime; // the actual time of executing inspection\r\n        address executor;\r\n        int timing; // 0: planning time, 1: in constructing, 2: after constructing \r\n        string note;\r\n        string photo;\r\n        string contractor;\r\n    }\r\n    \r\n    mapping (int => project) public projects;\r\n    int public projectIndex = 0;\r\n\r\n    function createSheet(int projectId, int sheetId, int[] memory _itemsState, int _timing, string memory _contractor) public {\r\n        projects[projectId].sheets[sheetId] = sheet(_itemsState, 0, \" \", address(1), _timing, \" \", \" \",  _contractor);\r\n    }\r\n    \r\n    function fillSheet(int projectId, int sheetId, int[] memory _state, string memory _date, string memory _note, string memory _photo) public {\r\n        projects[projectId].sheets[sheetId].itemsState = _state;\r\n        projects[projectId].sheets[sheetId].executed ++;\r\n        projects[projectId].sheets[sheetId].executeTime = _date;\r\n        projects[projectId].sheets[sheetId].executor = msg.sender;\r\n        projects[projectId].sheets[sheetId].note = _note;\r\n        projects[projectId].sheets[sheetId].photo = _photo;\r\n    }\r\n    \r\n    function inspectionItems(int projectId, int sheetId) public view returns(string memory _inspectionItems) {\r\n        _inspectionItems = projects[projectId].inspectionItems[sheetId];\r\n    }\r\n    \r\n    function sheetContent(int projectId, int sheetId) public view returns(int[] memory _itemsState, int _executed, string memory _executeTime, address _executor, int _timing, string memory _note, string memory _photo, string memory _contractor) {\r\n        _itemsState = projects[projectId].sheets[sheetId].itemsState;\r\n        _executed = projects[projectId].sheets[sheetId].executed;\r\n        _executeTime = projects[projectId].sheets[sheetId].executeTime;\r\n        _executor = projects[projectId].sheets[sheetId].executor;\r\n        _timing = projects[projectId].sheets[sheetId].timing;\r\n        _note = projects[projectId].sheets[sheetId].note;\r\n        _photo = projects[projectId].sheets[sheetId].photo;\r\n        _contractor = projects[projectId].sheets[sheetId].contractor;\r\n    }\r\n\r\n    function uploadItem(int projectId, int itemId, string memory ipfshash) public {\r\n        projects[projectId].inspectionItems[itemId] = ipfshash;   \r\n    }\r\n    \r\n    function wbs(int projectId, string memory ipfshash) public {\r\n        projects[projectId].wbs = ipfshash;\r\n    }\r\n\r\n    function createProject(string memory _name, string memory ipfshash) public {\r\n        projects[projectIndex].name = _name;\r\n        projects[projectIndex].wbs = ipfshash;\r\n        projectIndex ++;\r\n    }\r\n}",
    "sourcePath": "C:/Users/w5280/Desktop/MyFolder/my research/APP/contracts/AutonomousInspection.sol",
    "compiler": {
        "name": "solc",
        "version": "0.5.12+commit.7709ece9.Emscripten.clang"
    },
    "schemaVersion": "3.0.19",
    "updatedAt": "2020-03-02T04:13:27.337Z",
    "networkType": "ethereum",
    "devdoc": {
        "methods": {}
    },
    "userdoc": {
        "methods": {}
    }
}